{
  "contractName": "LUPI",
  "abi": [
    {
      "constant": true,
      "inputs": [],
      "name": "get_hub_addr",
      "outputs": [
        {
          "name": "",
          "type": "address"
        }
      ],
      "payable": false,
      "stateMutability": "view",
      "type": "function",
      "signature": "0x04badade"
    },
    {
      "constant": true,
      "inputs": [],
      "name": "pot",
      "outputs": [
        {
          "name": "",
          "type": "uint256"
        }
      ],
      "payable": false,
      "stateMutability": "view",
      "type": "function",
      "signature": "0x4ba2363a"
    },
    {
      "constant": true,
      "inputs": [],
      "name": "commitDuration",
      "outputs": [
        {
          "name": "",
          "type": "uint256"
        }
      ],
      "payable": false,
      "stateMutability": "view",
      "type": "function",
      "signature": "0x6f833811"
    },
    {
      "constant": true,
      "inputs": [],
      "name": "revealDuration",
      "outputs": [
        {
          "name": "",
          "type": "uint256"
        }
      ],
      "payable": false,
      "stateMutability": "view",
      "type": "function",
      "signature": "0x886a6de1"
    },
    {
      "constant": true,
      "inputs": [],
      "name": "owner",
      "outputs": [
        {
          "name": "",
          "type": "address"
        }
      ],
      "payable": false,
      "stateMutability": "view",
      "type": "function",
      "signature": "0x8da5cb5b"
    },
    {
      "constant": true,
      "inputs": [],
      "name": "get_message_data",
      "outputs": [
        {
          "name": "",
          "type": "bytes"
        }
      ],
      "payable": false,
      "stateMutability": "view",
      "type": "function",
      "signature": "0x91719568"
    },
    {
      "constant": true,
      "inputs": [],
      "name": "get_sender",
      "outputs": [
        {
          "name": "",
          "type": "address"
        }
      ],
      "payable": false,
      "stateMutability": "view",
      "type": "function",
      "signature": "0xa8d509ff"
    },
    {
      "constant": true,
      "inputs": [],
      "name": "balance",
      "outputs": [
        {
          "name": "",
          "type": "uint256"
        }
      ],
      "payable": false,
      "stateMutability": "view",
      "type": "function",
      "signature": "0xb69ef8a8"
    },
    {
      "constant": true,
      "inputs": [],
      "name": "stage",
      "outputs": [
        {
          "name": "",
          "type": "uint8"
        }
      ],
      "payable": false,
      "stateMutability": "view",
      "type": "function",
      "signature": "0xc040e6b8"
    },
    {
      "constant": true,
      "inputs": [
        {
          "name": "orig_sender",
          "type": "address"
        },
        {
          "name": "msg_data",
          "type": "bytes"
        }
      ],
      "name": "get_sender_from_data",
      "outputs": [
        {
          "name": "",
          "type": "address"
        }
      ],
      "payable": false,
      "stateMutability": "view",
      "type": "function",
      "signature": "0xc304e7a4"
    },
    {
      "constant": true,
      "inputs": [],
      "name": "get_recipient_balance",
      "outputs": [
        {
          "name": "",
          "type": "uint256"
        }
      ],
      "payable": false,
      "stateMutability": "view",
      "type": "function",
      "signature": "0xed6cd5d3"
    },
    {
      "inputs": [
        {
          "name": "hub",
          "type": "address"
        }
      ],
      "payable": false,
      "stateMutability": "nonpayable",
      "type": "constructor",
      "signature": "constructor"
    },
    {
      "anonymous": false,
      "inputs": [
        {
          "indexed": true,
          "name": "user",
          "type": "address"
        },
        {
          "indexed": false,
          "name": "blindedInput",
          "type": "bytes32"
        }
      ],
      "name": "CommitInput",
      "type": "event",
      "signature": "0x64d132becb298c4a0f172556a036560b1ee7418a81fe3d9697d45637a21a59a0"
    },
    {
      "anonymous": false,
      "inputs": [
        {
          "indexed": true,
          "name": "user",
          "type": "address"
        }
      ],
      "name": "BogusReveal",
      "type": "event",
      "signature": "0x979797562d4df82c38764e21bcd80b303bb45c0a81d348e314d2ce8594625167"
    },
    {
      "anonymous": false,
      "inputs": [
        {
          "indexed": true,
          "name": "user",
          "type": "address"
        },
        {
          "indexed": false,
          "name": "input",
          "type": "uint256"
        }
      ],
      "name": "RevealInput",
      "type": "event",
      "signature": "0x30f687939b2f671f0fe07f076c467a1ad98757e9daaea3d5b95012790247cfa2"
    },
    {
      "anonymous": false,
      "inputs": [
        {
          "indexed": true,
          "name": "winner",
          "type": "address"
        }
      ],
      "name": "GameOver",
      "type": "event",
      "signature": "0xf556ad7790e70877edcf3b3bb441255def8a405faa0dfdb005a02fa8e557bca9"
    },
    {
      "constant": true,
      "inputs": [
        {
          "name": "",
          "type": "address"
        },
        {
          "name": "from",
          "type": "address"
        },
        {
          "name": "",
          "type": "bytes"
        },
        {
          "name": "",
          "type": "uint256"
        },
        {
          "name": "",
          "type": "uint256"
        }
      ],
      "name": "accept_relayed_call",
      "outputs": [
        {
          "name": "",
          "type": "uint32"
        }
      ],
      "payable": false,
      "stateMutability": "view",
      "type": "function",
      "signature": "0x5dea186c"
    },
    {
      "constant": false,
      "inputs": [
        {
          "name": "relay",
          "type": "address"
        },
        {
          "name": "from",
          "type": "address"
        },
        {
          "name": "encoded_function",
          "type": "bytes"
        },
        {
          "name": "success",
          "type": "bool"
        },
        {
          "name": "used_gas",
          "type": "uint256"
        },
        {
          "name": "transaction_fee",
          "type": "uint256"
        }
      ],
      "name": "post_relayed_call",
      "outputs": [],
      "payable": false,
      "stateMutability": "nonpayable",
      "type": "function",
      "signature": "0x516dea30"
    },
    {
      "constant": false,
      "inputs": [
        {
          "name": "_pot",
          "type": "uint256"
        }
      ],
      "name": "setPot",
      "outputs": [],
      "payable": false,
      "stateMutability": "nonpayable",
      "type": "function",
      "signature": "0x80b5b80c"
    },
    {
      "constant": false,
      "inputs": [
        {
          "name": "_duration",
          "type": "uint256"
        }
      ],
      "name": "setCommitDuration",
      "outputs": [],
      "payable": false,
      "stateMutability": "nonpayable",
      "type": "function",
      "signature": "0x5db07e40"
    },
    {
      "constant": false,
      "inputs": [
        {
          "name": "_duration",
          "type": "uint256"
        }
      ],
      "name": "setRevealDuration",
      "outputs": [],
      "payable": false,
      "stateMutability": "nonpayable",
      "type": "function",
      "signature": "0x30b990f5"
    },
    {
      "constant": false,
      "inputs": [],
      "name": "deposit",
      "outputs": [],
      "payable": true,
      "stateMutability": "payable",
      "type": "function",
      "signature": "0xd0e30db0"
    },
    {
      "constant": false,
      "inputs": [],
      "name": "start",
      "outputs": [],
      "payable": false,
      "stateMutability": "nonpayable",
      "type": "function",
      "signature": "0xbe9a6555"
    },
    {
      "constant": false,
      "inputs": [
        {
          "name": "input",
          "type": "bytes32"
        }
      ],
      "name": "commitInput",
      "outputs": [],
      "payable": false,
      "stateMutability": "nonpayable",
      "type": "function",
      "signature": "0x15a7e47e"
    },
    {
      "constant": false,
      "inputs": [
        {
          "name": "number",
          "type": "uint256"
        },
        {
          "name": "nonce",
          "type": "uint256"
        }
      ],
      "name": "revealInput",
      "outputs": [],
      "payable": false,
      "stateMutability": "nonpayable",
      "type": "function",
      "signature": "0x2e8270d3"
    },
    {
      "constant": false,
      "inputs": [],
      "name": "settle",
      "outputs": [],
      "payable": false,
      "stateMutability": "nonpayable",
      "type": "function",
      "signature": "0x11da60b4"
    },
    {
      "constant": false,
      "inputs": [],
      "name": "withdrawReward",
      "outputs": [],
      "payable": false,
      "stateMutability": "nonpayable",
      "type": "function",
      "signature": "0xc885bc58"
    },
    {
      "constant": true,
      "inputs": [],
      "name": "getInput",
      "outputs": [
        {
          "name": "",
          "type": "uint256"
        }
      ],
      "payable": false,
      "stateMutability": "view",
      "type": "function",
      "signature": "0x186c2e5f"
    },
    {
      "constant": true,
      "inputs": [],
      "name": "getReward",
      "outputs": [
        {
          "name": "",
          "type": "uint256"
        }
      ],
      "payable": false,
      "stateMutability": "view",
      "type": "function",
      "signature": "0x3d18b912"
    },
    {
      "constant": true,
      "inputs": [],
      "name": "getPhase",
      "outputs": [
        {
          "name": "",
          "type": "uint256"
        }
      ],
      "payable": false,
      "stateMutability": "view",
      "type": "function",
      "signature": "0xeced0280"
    }
  ],
  "bytecode": "0x608060405260008060146101000a81548160ff021916908360028111156200002357fe5b021790555033600160006101000a81548173ffffffffffffffffffffffffffffffffffffffff021916908373ffffffffffffffffffffffffffffffffffffffff160217905550670de0b6b3a7640000600255601260035560126004553480156200008c57600080fd5b50604051602080620020cc83398101806040526020811015620000ae57600080fd5b8101908080519060200190929190505050620000d981620000e0640100000000026401000000009004565b506200033f565b600073ffffffffffffffffffffffffffffffffffffffff166000809054906101000a900473ffffffffffffffffffffffffffffffffffffffff1673ffffffffffffffffffffffffffffffffffffffff16141515620001a6576040517f08c379a00000000000000000000000000000000000000000000000000000000081526004018080602001828103825260208152602001807f696e69745f72656c61795f6875623a207268756220616c72656164792073657481525060200191505060405180910390fd5b620001c081620001c3640100000000026401000000009004565b50565b806000806101000a81548173ffffffffffffffffffffffffffffffffffffffff021916908373ffffffffffffffffffffffffffffffffffffffff1602179055506200021c62000220640100000000026401000000009004565b5050565b60006200023b62000316640100000000026401000000009004565b73ffffffffffffffffffffffffffffffffffffffff166370a08231306040518263ffffffff167c0100000000000000000000000000000000000000000000000000000000028152600401808273ffffffffffffffffffffffffffffffffffffffff1673ffffffffffffffffffffffffffffffffffffffff16815260200191505060206040518083038186803b158015620002d457600080fd5b505afa158015620002e9573d6000803e3d6000fd5b505050506040513d60208110156200030057600080fd5b8101908080519060200190929190505050905090565b60008060009054906101000a900473ffffffffffffffffffffffffffffffffffffffff16905090565b611d7d806200034f6000396000f3fe608060405260043610610149576000357c0100000000000000000000000000000000000000000000000000000000900463ffffffff16806304badade1461014e57806311da60b4146101a557806315a7e47e146101bc578063186c2e5f146101f75780632e8270d31461022257806330b990f5146102675780633d18b912146102a25780634ba2363a146102cd578063516dea30146102f85780635db07e40146104205780635dea186c1461045b5780636f8338111461059757806380b5b80c146105c2578063886a6de1146105fd5780638da5cb5b14610628578063917195681461067f578063a8d509ff1461070f578063b69ef8a814610766578063be9a655514610791578063c040e6b8146107a8578063c304e7a4146107e1578063c885bc5814610909578063d0e30db014610920578063eced02801461092a578063ed6cd5d314610955575b600080fd5b34801561015a57600080fd5b50610163610980565b604051808273ffffffffffffffffffffffffffffffffffffffff1673ffffffffffffffffffffffffffffffffffffffff16815260200191505060405180910390f35b3480156101b157600080fd5b506101ba6109a9565b005b3480156101c857600080fd5b506101f5600480360360208110156101df57600080fd5b8101908080359060200190929190505050610acc565b005b34801561020357600080fd5b5061020c610c1e565b6040518082815260200191505060405180910390f35b34801561022e57600080fd5b506102656004803603604081101561024557600080fd5b810190808035906020019092919080359060200190929190505050610c6c565b005b34801561027357600080fd5b506102a06004803603602081101561028a57600080fd5b8101908080359060200190929190505050610e3e565b005b3480156102ae57600080fd5b506102b7610ee0565b6040518082815260200191505060405180910390f35b3480156102d957600080fd5b506102e2610f2e565b6040518082815260200191505060405180910390f35b34801561030457600080fd5b5061041e600480360360c081101561031b57600080fd5b81019080803573ffffffffffffffffffffffffffffffffffffffff169060200190929190803573ffffffffffffffffffffffffffffffffffffffff1690602001909291908035906020019064010000000081111561037857600080fd5b82018360208201111561038a57600080fd5b803590602001918460018302840111640100000000831117156103ac57600080fd5b91908080601f016020809104026020016040519081016040528093929190818152602001838380828437600081840152601f19601f8201169050808301925050505050505091929192908035151590602001909291908035906020019092919080359060200190929190505050610f34565b005b34801561042c57600080fd5b506104596004803603602081101561044357600080fd5b8101908080359060200190929190505050610f3c565b005b34801561046757600080fd5b50610575600480360360a081101561047e57600080fd5b81019080803573ffffffffffffffffffffffffffffffffffffffff169060200190929190803573ffffffffffffffffffffffffffffffffffffffff169060200190929190803590602001906401000000008111156104db57600080fd5b8201836020820111156104ed57600080fd5b8035906020019184600183028401116401000000008311171561050f57600080fd5b91908080601f016020809104026020016040519081016040528093929190818152602001838380828437600081840152601f19601f8201169050808301925050505050505091929192908035906020019092919080359060200190929190505050610fde565b604051808263ffffffff1663ffffffff16815260200191505060405180910390f35b3480156105a357600080fd5b506105ac610fec565b6040518082815260200191505060405180910390f35b3480156105ce57600080fd5b506105fb600480360360208110156105e557600080fd5b8101908080359060200190929190505050610ff2565b005b34801561060957600080fd5b50610612611094565b6040518082815260200191505060405180910390f35b34801561063457600080fd5b5061063d61109a565b604051808273ffffffffffffffffffffffffffffffffffffffff1673ffffffffffffffffffffffffffffffffffffffff16815260200191505060405180910390f35b34801561068b57600080fd5b506106946110c0565b6040518080602001828103825283818151815260200191508051906020019080838360005b838110156106d45780820151818401526020810190506106b9565b50505050905090810190601f1680156107015780820380516001836020036101000a031916815260200191505b509250505060405180910390f35b34801561071b57600080fd5b50610724611260565b604051808273ffffffffffffffffffffffffffffffffffffffff1673ffffffffffffffffffffffffffffffffffffffff16815260200191505060405180910390f35b34801561077257600080fd5b5061077b6112b6565b6040518082815260200191505060405180910390f35b34801561079d57600080fd5b506107a66112bc565b005b3480156107b457600080fd5b506107bd6113aa565b604051808260028111156107cd57fe5b60ff16815260200191505060405180910390f35b3480156107ed57600080fd5b506108c76004803603604081101561080457600080fd5b81019080803573ffffffffffffffffffffffffffffffffffffffff1690602001909291908035906020019064010000000081111561084157600080fd5b82018360208201111561085357600080fd5b8035906020019184600183028401116401000000008311171561087557600080fd5b91908080601f016020809104026020016040519081016040528093929190818152602001838380828437600081840152601f19601f8201169050808301925050505050505091929192905050506113bd565b604051808273ffffffffffffffffffffffffffffffffffffffff1673ffffffffffffffffffffffffffffffffffffffff16815260200191505060405180910390f35b34801561091557600080fd5b5061091e611508565b005b6109286115f6565b005b34801561093657600080fd5b5061093f611608565b6040518082815260200191505060405180910390f35b34801561096157600080fd5b5061096a6116ca565b6040518082815260200191505060405180910390f35b60008060009054906101000a900473ffffffffffffffffffffffffffffffffffffffff16905090565b600160028111156109b657fe5b600060149054906101000a900460ff1660028111156109d157fe5b1480156109df575060075443115b15156109ea57600080fd5b6000806109f56117ac565b915091508073ffffffffffffffffffffffffffffffffffffffff167ff556ad7790e70877edcf3b3bb441255def8a405faa0dfdb005a02fa8e557bca960405160405180910390a26002600060146101000a81548160ff02191690836002811115610a5b57fe5b02179055508115610ac857600254600560008282540392505081905550600254600c60008373ffffffffffffffffffffffffffffffffffffffff1673ffffffffffffffffffffffffffffffffffffffff168152602001908152602001600020600082825401925050819055505b5050565b60016002811115610ad957fe5b600060149054906101000a900460ff166002811115610af457fe5b148015610b0357506006544311155b1515610b0e57600080fd5b6008610b18611260565b90806001815401808255809150509060018203906000526020600020016000909192909190916101000a81548173ffffffffffffffffffffffffffffffffffffffff021916908373ffffffffffffffffffffffffffffffffffffffff160217905550508060096000610b88611260565b73ffffffffffffffffffffffffffffffffffffffff1673ffffffffffffffffffffffffffffffffffffffff16815260200190815260200160002081905550610bce611260565b73ffffffffffffffffffffffffffffffffffffffff167f64d132becb298c4a0f172556a036560b1ee7418a81fe3d9697d45637a21a59a0826040518082815260200191505060405180910390a250565b6000600a6000610c2c611260565b73ffffffffffffffffffffffffffffffffffffffff1673ffffffffffffffffffffffffffffffffffffffff16815260200190815260200160002054905090565b60016002811115610c7957fe5b600060149054906101000a900460ff166002811115610c9457fe5b148015610ca2575060065443115b8015610cb057506007544311155b1515610cbb57600080fd5b600060096000610cc9611260565b73ffffffffffffffffffffffffffffffffffffffff1673ffffffffffffffffffffffffffffffffffffffff168152602001908152602001600020549050828260405160200180838152602001828152602001925050506040516020818303038152906040528051906020012081141580610d435750600083145b15610d9857610d50611260565b73ffffffffffffffffffffffffffffffffffffffff167f979797562d4df82c38764e21bcd80b303bb45c0a81d348e314d2ce859462516760405160405180910390a250610e3a565b82600a6000610da5611260565b73ffffffffffffffffffffffffffffffffffffffff1673ffffffffffffffffffffffffffffffffffffffff16815260200190815260200160002081905550610deb611260565b73ffffffffffffffffffffffffffffffffffffffff167f30f687939b2f671f0fe07f076c467a1ad98757e9daaea3d5b95012790247cfa2846040518082815260200191505060405180910390a2505b5050565b600160009054906101000a900473ffffffffffffffffffffffffffffffffffffffff1673ffffffffffffffffffffffffffffffffffffffff16610e7f611260565b73ffffffffffffffffffffffffffffffffffffffff16141515610ea157600080fd5b60016002811115610eae57fe5b600060149054906101000a900460ff166002811115610ec957fe5b14151515610ed657600080fd5b8060048190555050565b6000600c6000610eee611260565b73ffffffffffffffffffffffffffffffffffffffff1673ffffffffffffffffffffffffffffffffffffffff16815260200190815260200160002054905090565b60025481565b505050505050565b600160009054906101000a900473ffffffffffffffffffffffffffffffffffffffff1673ffffffffffffffffffffffffffffffffffffffff16610f7d611260565b73ffffffffffffffffffffffffffffffffffffffff16141515610f9f57600080fd5b60016002811115610fac57fe5b600060149054906101000a900460ff166002811115610fc757fe5b14151515610fd457600080fd5b8060038190555050565b600080905095945050505050565b60035481565b600160009054906101000a900473ffffffffffffffffffffffffffffffffffffffff1673ffffffffffffffffffffffffffffffffffffffff16611033611260565b73ffffffffffffffffffffffffffffffffffffffff1614151561105557600080fd5b6001600281111561106257fe5b600060149054906101000a900460ff16600281111561107d57fe5b1415151561108a57600080fd5b8060028190555050565b60045481565b600160009054906101000a900473ffffffffffffffffffffffffffffffffffffffff1681565b6060806000368080601f016020809104026020016040519081016040528093929190818152602001838380828437600081840152601f19601f820116905080830192505050505050509050611113610980565b73ffffffffffffffffffffffffffffffffffffffff163373ffffffffffffffffffffffffffffffffffffffff1614156112595760146000369050036040519080825280601f01601f1916602001820160405280156111805781602001600182028038833980820191505090505b50905060008090505b8151811015611257576000368281811015156111a157fe5b905001357f010000000000000000000000000000000000000000000000000000000000000090047f0100000000000000000000000000000000000000000000000000000000000000027effffffffffffffffffffffffffffffffffffffffffffffffffffffffffffff1916828281518110151561121a57fe5b9060200101907effffffffffffffffffffffffffffffffffffffffffffffffffffffffffffff1916908160001a9053508080600101915050611189565b505b8091505090565b60006112b1336000368080601f016020809104026020016040519081016040528093929190818152602001838380828437600081840152601f19601f820116905080830192505050505050506113bd565b905090565b60055481565b600160009054906101000a900473ffffffffffffffffffffffffffffffffffffffff1673ffffffffffffffffffffffffffffffffffffffff166112fd611260565b73ffffffffffffffffffffffffffffffffffffffff1614151561131f57600080fd5b6001600281111561132c57fe5b600060149054906101000a900460ff16600281111561134757fe5b14158015611359575060025460055410155b151561136457600080fd5b61136c611b77565b6003544301600681905550600454600654016007819055506001600060146101000a81548160ff021916908360028111156113a357fe5b0217905550565b600060149054906101000a900460ff1681565b6000808390506113cb610980565b73ffffffffffffffffffffffffffffffffffffffff168473ffffffffffffffffffffffffffffffffffffffff1614156114fe57606060146040519080825280601f01601f1916602001820160405280156114345781602001600182028038833980820191505090505b50905060008090505b81518110156114f057848183518751030181518110151561145a57fe5b9060200101517f010000000000000000000000000000000000000000000000000000000000000090047f01000000000000000000000000000000000000000000000000000000000000000282828151811015156114b357fe5b9060200101907effffffffffffffffffffffffffffffffffffffffffffffffffffffffffffff1916908160001a905350808060010191505061143d565b506114fa81611cd4565b9150505b8091505092915050565b6000600c6000611516611260565b73ffffffffffffffffffffffffffffffffffffffff1673ffffffffffffffffffffffffffffffffffffffff1681526020019081526020016000205490506000600c6000611561611260565b73ffffffffffffffffffffffffffffffffffffffff1673ffffffffffffffffffffffffffffffffffffffff1681526020019081526020016000208190555060006115a9611260565b90508073ffffffffffffffffffffffffffffffffffffffff166108fc839081150290604051600060405180830381858888f193505050501580156115f1573d6000803e3d6000fd5b505050565b34600560008282540192505081905550565b600080600281111561161657fe5b600060149054906101000a900460ff16600281111561163157fe5b1480611661575060028081111561164457fe5b600060149054906101000a900460ff16600281111561165f57fe5b145b1561167a576000600381111561167357fe5b90506116c7565b60065443111515611699576001600381111561169257fe5b90506116c7565b600754431115156116b857600260038111156116b157fe5b90506116c7565b6003808111156116c457fe5b90505b90565b60006116d4611ce2565b73ffffffffffffffffffffffffffffffffffffffff166370a08231306040518263ffffffff167c0100000000000000000000000000000000000000000000000000000000028152600401808273ffffffffffffffffffffffffffffffffffffffff1673ffffffffffffffffffffffffffffffffffffffff16815260200191505060206040518083038186803b15801561176c57600080fd5b505afa158015611780573d6000803e3d6000fd5b505050506040513d602081101561179657600080fd5b8101908080519060200190929190505050905090565b600080600080905060606008805490506040519080825280602002602001820160405280156117ea5781602001602082028038833980820191505090505b50905060008090505b6008805490508110156118fe576000600a600060088481548110151561181557fe5b9060005260206000200160009054906101000a900473ffffffffffffffffffffffffffffffffffffffff1673ffffffffffffffffffffffffffffffffffffffff1673ffffffffffffffffffffffffffffffffffffffff168152602001908152602001600020549050600081141561188c57506118f1565b600b6000828152602001908152602001600020600081548092919060010191905055506001600b60008381526020019081526020016000205414156118ef578083858060010196508151811015156118e057fe5b90602001906020020181815250505b505b80806001019150506117f3565b5060008090506060836040519080825280602002602001820160405280156119355781602001602082028038833980820191505090505b50905060008090505b83518110156119b1576000848281518110151561195757fe5b9060200190602002015190506001600b60008381526020019081526020016000205414156119a35780838580600101965081518110151561199457fe5b90602001906020020181815250505b50808060010191505061193e565b506000815114156119cc576000809550955050505050611b73565b60008160008151811015156119dd57fe5b9060200190602002015190506000600190505b8251811015611a2f5760008382815181101515611a0957fe5b90602001906020020151905082811015611a21578092505b5080806001019150506119f0565b5060008090505b600880549050811015611b215781600a6000600884815481101515611a5757fe5b9060005260206000200160009054906101000a900473ffffffffffffffffffffffffffffffffffffffff1673ffffffffffffffffffffffffffffffffffffffff1673ffffffffffffffffffffffffffffffffffffffff168152602001908152602001600020541415611b14576000600882815481101515611ad457fe5b9060005260206000200160009054906101000a900473ffffffffffffffffffffffffffffffffffffffff1690506001819850985050505050505050611b73565b8080600101915050611a36565b5060008090505b8451811015611b6c57600b60008683815181101515611b4357fe5b906020019060200201518152602001908152602001600020600090558080600101915050611b28565b5050505050505b9091565b60006002811115611b8457fe5b600060149054906101000a900460ff166002811115611b9f57fe5b1415611baa57611cd2565b60008090505b600880549050811015611cc25760096000600883815481101515611bd057fe5b9060005260206000200160009054906101000a900473ffffffffffffffffffffffffffffffffffffffff1673ffffffffffffffffffffffffffffffffffffffff1673ffffffffffffffffffffffffffffffffffffffff16815260200190815260200160002060009055600a6000600883815481101515611c4c57fe5b9060005260206000200160009054906101000a900473ffffffffffffffffffffffffffffffffffffffff1673ffffffffffffffffffffffffffffffffffffffff1673ffffffffffffffffffffffffffffffffffffffff168152602001908152602001600020600090558080600101915050611bb0565b5060086000611cd19190611d0b565b5b565b600060148201519050919050565b60008060009054906101000a900473ffffffffffffffffffffffffffffffffffffffff16905090565b5080546000825590600052602060002090810190611d299190611d2c565b50565b611d4e91905b80821115611d4a576000816000905550600101611d32565b5090565b9056fea165627a7a72305820f259dbe26cdc68a019eb15cdd56d195164b7072c5939476ce388648912359db50029",
  "source": "pragma solidity ^0.5.0;\n\nimport \"tabookey-gasless/contracts/RelayRecipient.sol\";\n\ncontract LUPI is RelayRecipient {\n  enum Stage { INIT, IN_PROGRESS, END }\n  enum Phase { NO_GAME, COMMIT, REVEAL, SETTLE}\n\n  Stage public stage = Stage.INIT;\n  address payable public owner = msg.sender;\n  uint public pot = 1 ether;\n  // Ropsten average block time 9.2 seconds\n  // 18 blocks is about 3 min\n  uint public commitDuration = 18;\n  uint public revealDuration = 18;\n  uint public balance;\n\n  uint private commitDeadline;\n  uint private revealDeadline;\n\n  address[] private players;\n  mapping(address => bytes32) private blindedInputs;\n  mapping(address => uint) private revealedInputs;\n  mapping(uint => uint) private counts;\n  mapping(address => uint) private rewards;\n\n  event CommitInput(address indexed user, bytes32 blindedInput);\n  event BogusReveal(address indexed user);\n  event RevealInput(address indexed user, uint input);\n  event GameOver(address indexed winner);\n\n  modifier onlyOwner() {\n    require(get_sender() == owner);\n    _;\n  }\n\n  constructor(RelayHub hub) public {\n    init_relay_hub(hub);\n  }\n\n  // RelayRecipient interfaces\n  function accept_relayed_call(address /*relay*/, address from, bytes memory /*encoded_function*/, uint /*gas_price*/, uint /*transaction_fee*/ ) public view returns(uint32) {\n    // accept everyone\n    return 0;\n\t}\n\n  function post_relayed_call(address relay, address from, bytes memory encoded_function, bool success, uint used_gas, uint transaction_fee ) public {\n  }\n\n  function setPot(uint _pot) external onlyOwner {\n    require(stage != Stage.IN_PROGRESS);\n    pot = _pot;\n  }\n\n  function setCommitDuration(uint _duration) external onlyOwner {\n    require(stage != Stage.IN_PROGRESS);\n    commitDuration = _duration;\n  }\n\n  function setRevealDuration(uint _duration) external onlyOwner {\n    require(stage != Stage.IN_PROGRESS);\n    revealDuration = _duration;\n  }\n\n  function deposit() payable external {\n    balance += msg.value;\n  }\n\n  function reset() private {\n    if (stage == Stage.INIT) {\n      return;\n    }\n    for (uint i = 0; i < players.length; i++) {\n      delete blindedInputs[players[i]];\n      delete revealedInputs[players[i]];\n    }\n    delete players;\n  }\n\n  function start() external onlyOwner {\n    require(stage != Stage.IN_PROGRESS && balance >= pot);\n    reset();\n    commitDeadline = block.number + commitDuration;\n    revealDeadline = commitDeadline + revealDuration;\n    stage = Stage.IN_PROGRESS;\n  }\n\n  function commitInput(bytes32 input) external {\n    require(stage == Stage.IN_PROGRESS && block.number <= commitDeadline);\n    players.push(get_sender());\n    blindedInputs[get_sender()] = input;\n    emit CommitInput(get_sender(), input);\n  }\n\n  function revealInput(uint number, uint nonce) external {\n    require(stage == Stage.IN_PROGRESS\n       && block.number > commitDeadline\n       && block.number <= revealDeadline);\n    bytes32 blindedInput = blindedInputs[get_sender()];\n    if (blindedInput != keccak256(abi.encodePacked(number, nonce))\n      || number == 0) {\n      emit BogusReveal(get_sender());\n      return;\n    }\n    revealedInputs[get_sender()] = number;\n    emit RevealInput(get_sender(), number);\n  }\n\n  function computeWinner() private returns (bool has_winner, address payable winner) {\n    uint numDistinct = 0;\n    uint[] memory distinctValues = new uint[](players.length);\n\n    for (uint i = 0; i < players.length; i++) {\n      uint val = revealedInputs[players[i]];\n      if (val == 0)\n        continue;\n      counts[val]++;\n      if (counts[val] == 1) {\n        distinctValues[numDistinct++] = val;\n      }\n    }\n\n    uint numUnique = 0;\n    uint[] memory uniqueValues = new uint[](numDistinct);\n    for (uint i = 0; i < distinctValues.length; i++) {\n      uint val = distinctValues[i];\n      if (counts[val] == 1) {\n        uniqueValues[numUnique++] = val;\n      }\n    }\n\n    if (uniqueValues.length == 0) {\n      return (false, address(0));\n    }\n\n    uint minValue = uniqueValues[0];\n    for (uint i = 1; i < uniqueValues.length; i++) {\n      uint val = uniqueValues[i];\n      if (val < minValue) {\n        minValue = val;\n      }\n    }\n\n    for (uint i = 0; i < players.length; i++) {\n      if (revealedInputs[players[i]] == minValue) {\n        address payable winnerPlayer = address(uint160(players[i]));\n        return (true, winnerPlayer);\n      }\n    }\n\n    for (uint i = 0; i < distinctValues.length; i++) {\n      delete counts[distinctValues[i]];\n    }\n  }\n\n  function settle() external {\n    require(stage == Stage.IN_PROGRESS && block.number > revealDeadline);\n\n    (bool hasWinner, address payable winner) = computeWinner();\n    emit GameOver(winner);\n    stage = Stage.END;\n    if (hasWinner) {\n      balance -= pot;\n      rewards[winner] += pot;\n    }\n  }\n\n  function withdrawReward() external {\n    uint reward = rewards[get_sender()];\n    rewards[get_sender()] = 0;\n    address payable addr = address(uint160(get_sender()));\n    addr.transfer(reward);\n  }\n\n  function getInput() public view returns (uint) {\n    return revealedInputs[get_sender()];\n  }\n\n  function getReward() public view returns (uint) {\n    return rewards[get_sender()];\n  }\n\n  function getPhase() public view returns (uint) {\n    if (stage == Stage.INIT || stage == Stage.END) {\n      return uint(Phase.NO_GAME);\n    }\n    if (block.number <= commitDeadline) {\n      return uint(Phase.COMMIT);\n    } else if (block.number <= revealDeadline) {\n      return uint(Phase.REVEAL);\n    } else {\n      return uint(Phase.SETTLE);\n    }\n  }\n}\n",
  "sourcePath": "/Users/veronica/src/LUPI/LUPI02/contracts/LUPI.sol",
  "compiler": {
    "name": "solc",
    "version": "0.5.0+commit.1d4f565a.Emscripten.clang"
  },
  "schemaVersion": "3.0.8",
  "updatedAt": "2019-05-03T12:50:18.650Z",
  "devdoc": {
    "methods": {}
  },
  "userdoc": {
    "methods": {
      "get_recipient_balance()": {
        "notice": "return the balance of this contract. Note that this method will revert on configuration error (invalid relay address)"
      }
    }
  }
}